{
  "_format": "hh-sol-artifact-1",
  "contractName": "SteakNStake",
  "sourceName": "contracts/SteakNStake.sol",
  "abi": [
    {
      "inputs": [],
      "stateMutability": "nonpayable",
      "type": "constructor"
    },
    {
      "inputs": [],
      "name": "EnforcedPause",
      "type": "error"
    },
    {
      "inputs": [],
      "name": "ExpectedPause",
      "type": "error"
    },
    {
      "inputs": [],
      "name": "InvalidInitialization",
      "type": "error"
    },
    {
      "inputs": [],
      "name": "NotInitializing",
      "type": "error"
    },
    {
      "inputs": [
        {
          "internalType": "address",
          "name": "owner",
          "type": "address"
        }
      ],
      "name": "OwnableInvalidOwner",
      "type": "error"
    },
    {
      "inputs": [
        {
          "internalType": "address",
          "name": "account",
          "type": "address"
        }
      ],
      "name": "OwnableUnauthorizedAccount",
      "type": "error"
    },
    {
      "inputs": [],
      "name": "ReentrancyGuardReentrantCall",
      "type": "error"
    },
    {
      "inputs": [
        {
          "internalType": "address",
          "name": "token",
          "type": "address"
        }
      ],
      "name": "SafeERC20FailedOperation",
      "type": "error"
    },
    {
      "anonymous": false,
      "inputs": [
        {
          "indexed": true,
          "internalType": "address",
          "name": "account",
          "type": "address"
        },
        {
          "indexed": false,
          "internalType": "bool",
          "name": "authorized",
          "type": "bool"
        }
      ],
      "name": "AuthorizedUpdated",
      "type": "event"
    },
    {
      "anonymous": false,
      "inputs": [
        {
          "indexed": true,
          "internalType": "address",
          "name": "oldWallet",
          "type": "address"
        },
        {
          "indexed": true,
          "internalType": "address",
          "name": "newWallet",
          "type": "address"
        }
      ],
      "name": "BackendWalletUpdated",
      "type": "event"
    },
    {
      "anonymous": false,
      "inputs": [
        {
          "indexed": true,
          "internalType": "address",
          "name": "funder",
          "type": "address"
        },
        {
          "indexed": false,
          "internalType": "uint256",
          "name": "amount",
          "type": "uint256"
        }
      ],
      "name": "ContractFunded",
      "type": "event"
    },
    {
      "anonymous": false,
      "inputs": [
        {
          "indexed": false,
          "internalType": "uint64",
          "name": "version",
          "type": "uint64"
        }
      ],
      "name": "Initialized",
      "type": "event"
    },
    {
      "anonymous": false,
      "inputs": [
        {
          "indexed": false,
          "internalType": "uint256",
          "name": "oldMinimum",
          "type": "uint256"
        },
        {
          "indexed": false,
          "internalType": "uint256",
          "name": "newMinimum",
          "type": "uint256"
        }
      ],
      "name": "MinimumStakeUpdated",
      "type": "event"
    },
    {
      "anonymous": false,
      "inputs": [
        {
          "indexed": true,
          "internalType": "address",
          "name": "previousOwner",
          "type": "address"
        },
        {
          "indexed": true,
          "internalType": "address",
          "name": "newOwner",
          "type": "address"
        }
      ],
      "name": "OwnershipTransferred",
      "type": "event"
    },
    {
      "anonymous": false,
      "inputs": [
        {
          "indexed": false,
          "internalType": "address",
          "name": "account",
          "type": "address"
        }
      ],
      "name": "Paused",
      "type": "event"
    },
    {
      "anonymous": false,
      "inputs": [
        {
          "indexed": true,
          "internalType": "address",
          "name": "user",
          "type": "address"
        },
        {
          "indexed": false,
          "internalType": "uint256",
          "name": "amount",
          "type": "uint256"
        },
        {
          "indexed": false,
          "internalType": "uint256",
          "name": "timestamp",
          "type": "uint256"
        }
      ],
      "name": "Staked",
      "type": "event"
    },
    {
      "anonymous": false,
      "inputs": [
        {
          "indexed": true,
          "internalType": "address",
          "name": "user",
          "type": "address"
        },
        {
          "indexed": false,
          "internalType": "uint256",
          "name": "amount",
          "type": "uint256"
        }
      ],
      "name": "TipsAllocated",
      "type": "event"
    },
    {
      "anonymous": false,
      "inputs": [
        {
          "indexed": true,
          "internalType": "address",
          "name": "user",
          "type": "address"
        },
        {
          "indexed": false,
          "internalType": "uint256",
          "name": "amount",
          "type": "uint256"
        },
        {
          "indexed": false,
          "internalType": "enum SteakNStake.ClaimAction",
          "name": "action",
          "type": "uint8"
        }
      ],
      "name": "TipsClaimed",
      "type": "event"
    },
    {
      "anonymous": false,
      "inputs": [
        {
          "indexed": false,
          "internalType": "address",
          "name": "account",
          "type": "address"
        }
      ],
      "name": "Unpaused",
      "type": "event"
    },
    {
      "anonymous": false,
      "inputs": [
        {
          "indexed": true,
          "internalType": "address",
          "name": "user",
          "type": "address"
        },
        {
          "indexed": false,
          "internalType": "uint256",
          "name": "amount",
          "type": "uint256"
        },
        {
          "indexed": false,
          "internalType": "uint256",
          "name": "timestamp",
          "type": "uint256"
        }
      ],
      "name": "Unstaked",
      "type": "event"
    },
    {
      "inputs": [
        {
          "internalType": "address[]",
          "name": "users",
          "type": "address[]"
        },
        {
          "internalType": "uint256[]",
          "name": "amounts",
          "type": "uint256[]"
        }
      ],
      "name": "allocateTipsBatch",
      "outputs": [],
      "stateMutability": "nonpayable",
      "type": "function"
    },
    {
      "inputs": [
        {
          "internalType": "address",
          "name": "",
          "type": "address"
        }
      ],
      "name": "allocatedTips",
      "outputs": [
        {
          "internalType": "uint256",
          "name": "",
          "type": "uint256"
        }
      ],
      "stateMutability": "view",
      "type": "function"
    },
    {
      "inputs": [
        {
          "internalType": "address",
          "name": "",
          "type": "address"
        }
      ],
      "name": "authorized",
      "outputs": [
        {
          "internalType": "bool",
          "name": "",
          "type": "bool"
        }
      ],
      "stateMutability": "view",
      "type": "function"
    },
    {
      "inputs": [],
      "name": "backendWallet",
      "outputs": [
        {
          "internalType": "address",
          "name": "",
          "type": "address"
        }
      ],
      "stateMutability": "view",
      "type": "function"
    },
    {
      "inputs": [
        {
          "internalType": "enum SteakNStake.ClaimAction",
          "name": "action",
          "type": "uint8"
        }
      ],
      "name": "claimTips",
      "outputs": [],
      "stateMutability": "nonpayable",
      "type": "function"
    },
    {
      "inputs": [],
      "name": "claimToWallet",
      "outputs": [],
      "stateMutability": "nonpayable",
      "type": "function"
    },
    {
      "inputs": [
        {
          "internalType": "address",
          "name": "",
          "type": "address"
        }
      ],
      "name": "claimedTips",
      "outputs": [
        {
          "internalType": "uint256",
          "name": "",
          "type": "uint256"
        }
      ],
      "stateMutability": "view",
      "type": "function"
    },
    {
      "inputs": [
        {
          "internalType": "address",
          "name": "token",
          "type": "address"
        },
        {
          "internalType": "uint256",
          "name": "amount",
          "type": "uint256"
        }
      ],
      "name": "emergencyRecoverTokens",
      "outputs": [],
      "stateMutability": "nonpayable",
      "type": "function"
    },
    {
      "inputs": [
        {
          "internalType": "uint256",
          "name": "amount",
          "type": "uint256"
        }
      ],
      "name": "fundContract",
      "outputs": [],
      "stateMutability": "nonpayable",
      "type": "function"
    },
    {
      "inputs": [
        {
          "internalType": "address",
          "name": "user",
          "type": "address"
        }
      ],
      "name": "getClaimableAmount",
      "outputs": [
        {
          "internalType": "uint256",
          "name": "",
          "type": "uint256"
        }
      ],
      "stateMutability": "view",
      "type": "function"
    },
    {
      "inputs": [],
      "name": "getContractBalance",
      "outputs": [
        {
          "internalType": "uint256",
          "name": "",
          "type": "uint256"
        }
      ],
      "stateMutability": "view",
      "type": "function"
    },
    {
      "inputs": [],
      "name": "getContractStats",
      "outputs": [
        {
          "internalType": "uint256",
          "name": "totalStaked_",
          "type": "uint256"
        },
        {
          "internalType": "uint256",
          "name": "totalAllocated_",
          "type": "uint256"
        },
        {
          "internalType": "uint256",
          "name": "totalClaimed_",
          "type": "uint256"
        },
        {
          "internalType": "uint256",
          "name": "contractBalance",
          "type": "uint256"
        }
      ],
      "stateMutability": "view",
      "type": "function"
    },
    {
      "inputs": [
        {
          "internalType": "address",
          "name": "user",
          "type": "address"
        }
      ],
      "name": "getStakeTimestamp",
      "outputs": [
        {
          "internalType": "uint256",
          "name": "",
          "type": "uint256"
        }
      ],
      "stateMutability": "view",
      "type": "function"
    },
    {
      "inputs": [
        {
          "internalType": "address",
          "name": "user",
          "type": "address"
        }
      ],
      "name": "getStakedAmount",
      "outputs": [
        {
          "internalType": "uint256",
          "name": "",
          "type": "uint256"
        }
      ],
      "stateMutability": "view",
      "type": "function"
    },
    {
      "inputs": [
        {
          "internalType": "address",
          "name": "user",
          "type": "address"
        }
      ],
      "name": "getUserStats",
      "outputs": [
        {
          "internalType": "uint256",
          "name": "staked",
          "type": "uint256"
        },
        {
          "internalType": "uint256",
          "name": "claimableTips",
          "type": "uint256"
        },
        {
          "internalType": "uint256",
          "name": "totalTipsReceived_",
          "type": "uint256"
        },
        {
          "internalType": "uint256",
          "name": "lifetimeStaked_",
          "type": "uint256"
        },
        {
          "internalType": "uint256",
          "name": "stakeTimestamp",
          "type": "uint256"
        }
      ],
      "stateMutability": "view",
      "type": "function"
    },
    {
      "inputs": [
        {
          "internalType": "address",
          "name": "_steakToken",
          "type": "address"
        },
        {
          "internalType": "address",
          "name": "_backendWallet",
          "type": "address"
        },
        {
          "internalType": "uint256",
          "name": "_minimumStake",
          "type": "uint256"
        }
      ],
      "name": "initialize",
      "outputs": [],
      "stateMutability": "nonpayable",
      "type": "function"
    },
    {
      "inputs": [
        {
          "internalType": "address",
          "name": "",
          "type": "address"
        }
      ],
      "name": "lifetimeStaked",
      "outputs": [
        {
          "internalType": "uint256",
          "name": "",
          "type": "uint256"
        }
      ],
      "stateMutability": "view",
      "type": "function"
    },
    {
      "inputs": [],
      "name": "minimumStake",
      "outputs": [
        {
          "internalType": "uint256",
          "name": "",
          "type": "uint256"
        }
      ],
      "stateMutability": "view",
      "type": "function"
    },
    {
      "inputs": [],
      "name": "owner",
      "outputs": [
        {
          "internalType": "address",
          "name": "",
          "type": "address"
        }
      ],
      "stateMutability": "view",
      "type": "function"
    },
    {
      "inputs": [],
      "name": "pause",
      "outputs": [],
      "stateMutability": "nonpayable",
      "type": "function"
    },
    {
      "inputs": [],
      "name": "paused",
      "outputs": [
        {
          "internalType": "bool",
          "name": "",
          "type": "bool"
        }
      ],
      "stateMutability": "view",
      "type": "function"
    },
    {
      "inputs": [],
      "name": "renounceOwnership",
      "outputs": [],
      "stateMutability": "nonpayable",
      "type": "function"
    },
    {
      "inputs": [
        {
          "internalType": "address",
          "name": "account",
          "type": "address"
        },
        {
          "internalType": "bool",
          "name": "_authorized",
          "type": "bool"
        }
      ],
      "name": "setAuthorized",
      "outputs": [],
      "stateMutability": "nonpayable",
      "type": "function"
    },
    {
      "inputs": [
        {
          "internalType": "address",
          "name": "newBackendWallet",
          "type": "address"
        }
      ],
      "name": "setBackendWallet",
      "outputs": [],
      "stateMutability": "nonpayable",
      "type": "function"
    },
    {
      "inputs": [
        {
          "internalType": "uint256",
          "name": "newMinimumStake",
          "type": "uint256"
        }
      ],
      "name": "setMinimumStake",
      "outputs": [],
      "stateMutability": "nonpayable",
      "type": "function"
    },
    {
      "inputs": [
        {
          "internalType": "uint256",
          "name": "amount",
          "type": "uint256"
        }
      ],
      "name": "stake",
      "outputs": [],
      "stateMutability": "nonpayable",
      "type": "function"
    },
    {
      "inputs": [
        {
          "internalType": "address",
          "name": "",
          "type": "address"
        }
      ],
      "name": "stakeTimestamps",
      "outputs": [
        {
          "internalType": "uint256",
          "name": "",
          "type": "uint256"
        }
      ],
      "stateMutability": "view",
      "type": "function"
    },
    {
      "inputs": [
        {
          "internalType": "address",
          "name": "",
          "type": "address"
        }
      ],
      "name": "stakedAmounts",
      "outputs": [
        {
          "internalType": "uint256",
          "name": "",
          "type": "uint256"
        }
      ],
      "stateMutability": "view",
      "type": "function"
    },
    {
      "inputs": [],
      "name": "steakToken",
      "outputs": [
        {
          "internalType": "contract IERC20",
          "name": "",
          "type": "address"
        }
      ],
      "stateMutability": "view",
      "type": "function"
    },
    {
      "inputs": [],
      "name": "totalAllocated",
      "outputs": [
        {
          "internalType": "uint256",
          "name": "",
          "type": "uint256"
        }
      ],
      "stateMutability": "view",
      "type": "function"
    },
    {
      "inputs": [],
      "name": "totalClaimed",
      "outputs": [
        {
          "internalType": "uint256",
          "name": "",
          "type": "uint256"
        }
      ],
      "stateMutability": "view",
      "type": "function"
    },
    {
      "inputs": [],
      "name": "totalStaked",
      "outputs": [
        {
          "internalType": "uint256",
          "name": "",
          "type": "uint256"
        }
      ],
      "stateMutability": "view",
      "type": "function"
    },
    {
      "inputs": [
        {
          "internalType": "address",
          "name": "",
          "type": "address"
        }
      ],
      "name": "totalTipsReceived",
      "outputs": [
        {
          "internalType": "uint256",
          "name": "",
          "type": "uint256"
        }
      ],
      "stateMutability": "view",
      "type": "function"
    },
    {
      "inputs": [
        {
          "internalType": "address",
          "name": "newOwner",
          "type": "address"
        }
      ],
      "name": "transferOwnership",
      "outputs": [],
      "stateMutability": "nonpayable",
      "type": "function"
    },
    {
      "inputs": [],
      "name": "unpause",
      "outputs": [],
      "stateMutability": "nonpayable",
      "type": "function"
    },
    {
      "inputs": [
        {
          "internalType": "uint256",
          "name": "amount",
          "type": "uint256"
        }
      ],
      "name": "unstake",
      "outputs": [],
      "stateMutability": "nonpayable",
      "type": "function"
    },
    {
      "inputs": [],
      "name": "version",
      "outputs": [
        {
          "internalType": "string",
          "name": "",
          "type": "string"
        }
      ],
      "stateMutability": "pure",
      "type": "function"
    }
  ],
  "bytecode": "0x608060405234801561001057600080fd5b5061001961001e565b6100d0565b7ff0c57e16840df040f15088dc2f81fe391c3923bec73e23a9662efc9c229c6a00805468010000000000000000900460ff161561006e5760405163f92ee8a960e01b815260040160405180910390fd5b80546001600160401b03908116146100cd5780546001600160401b0319166001600160401b0390811782556040519081527fc7f505b2f371ae2175ee4913f4499e1f2633a7b5936321eed1cdaeb6115181d29060200160405180910390a15b50565b611e9a806100df6000396000f3fe608060405234801561001057600080fd5b50600436106102275760003560e01c806375a0989611610130578063b0002216116100b8578063dfe6b5d61161007c578063dfe6b5d614610538578063e12f3a6114610560578063ec5ffac214610573578063f2fde38b1461057c578063fdba1c451461058f57600080fd5b8063b0002216146104c4578063b9181611146104cc578063ccdd5db4146104ef578063cd34d1e91461050f578063d54ad2a11461052f57600080fd5b80638456cb59116100ff5780638456cb59146104565780638da5cb5b1461045e57806399f853a51461047e578063a680baaf1461049e578063a694fc3a146104b157600080fd5b806375a09896146103fe5780637644dd5b14610411578063817b1cd2146104245780638351ac031461042d57600080fd5b80633f4ba83a116101b357806354fd4d501161018257806354fd4d50146103885780635c975abb146103b75780636f9fb98a146103db578063711bf9b2146103e3578063715018a6146103f657600080fd5b80633f4ba83a1461031357806345f7f2491461031b5780634da6a556146103245780634e43603a1461034d57600080fd5b80632a581e5e116101fa5780632a581e5e1461029a5780632e17de78146102ba5780633519a2f8146102cd57806336fecffa146102e05780633dcd2c1d1461030057600080fd5b80630edfe7ec1461022c57806310c1c103146102415780631794bb3c14610274578063233e990314610287575b600080fd5b61023f61023a366004611b20565b6105a2565b005b61026161024f366004611b20565b60026020526000908152604090205481565b6040519081526020015b60405180910390f35b61023f610282366004611b42565b610674565b61023f610295366004611b7e565b610868565b6102616102a8366004611b20565b60066020526000908152604090205481565b61023f6102c8366004611b7e565b6108b5565b61023f6102db366004611b7e565b610a43565b6102616102ee366004611b20565b600c6020526000908152604090205481565b61023f61030e366004611b97565b610ad4565b61023f610bb3565b61026160085481565b610261610332366004611b20565b6001600160a01b031660009081526002602052604090205490565b61036061035b366004611b20565b610bc5565b604080519586526020860194909452928401919091526060830152608082015260a00161026b565b604080518082018252600d81526c0c4b8c0b8c0b5d5b9a599a5959609a1b6020820152905161026b9190611bc1565b600080516020611e258339815191525460ff165b604051901515815260200161026b565b610261610c2c565b61023f6103f1366004611c0f565b610c9e565b61023f610d06565b61023f61040c366004611c97565b610d18565b61023f61041f366004611d03565b611190565b61026160045481565b61026161043b366004611b20565b6001600160a01b031660009081526003602052604090205490565b61023f611419565b610466611429565b6040516001600160a01b03909116815260200161026b565b61026161048c366004611b20565b60036020526000908152604090205481565b600154610466906001600160a01b031681565b61023f6104bf366004611b7e565b611457565b61023f611488565b6103cb6104da366004611b20565b600a6020526000908152604090205460ff1681565b6102616104fd366004611b20565b60076020526000908152604090205481565b61026161051d366004611b20565b600b6020526000908152604090205481565b61026160095481565b6105406114e0565b60408051948552602085019390935291830152606082015260800161026b565b61026161056e366004611b20565b611573565b61026160055481565b61023f61058a366004611b20565b6115a7565b600054610466906001600160a01b031681565b6105aa6115e2565b6001600160a01b0381166105f75760405162461bcd60e51b815260206004820152600f60248201526e496e76616c6964206164647265737360881b60448201526064015b60405180910390fd5b600180546001600160a01b039081166000908152600a6020526040808220805460ff1990811690915584548685166001600160a01b0319821681178755808552838520805490931690961790915590519216929183917f716b3a2dfa2f49860523af3a731e959ff542da2a80f52dfd893cdb2b93d6304691a35050565b600061067e611614565b805490915060ff600160401b820416159067ffffffffffffffff166000811580156106a65750825b905060008267ffffffffffffffff1660011480156106c35750303b155b9050811580156106d1575080155b156106ef5760405163f92ee8a960e01b815260040160405180910390fd5b845467ffffffffffffffff19166001178555831561071957845460ff60401b1916600160401b1785555b6107223361163d565b61072a61164e565b61073261165e565b6001600160a01b0388166107805760405162461bcd60e51b8152602060048201526015602482015274496e76616c696420746f6b656e206164647265737360581b60448201526064016105ee565b6001600160a01b0387166107cf5760405162461bcd60e51b8152602060048201526016602482015275125b9d985b1a5908189858dad95b99081dd85b1b195d60521b60448201526064016105ee565b600080546001600160a01b03808b166001600160a01b031992831617835560018054918b16919092168117825560058990558252600a6020526040909120805460ff19169091179055831561085e57845460ff60401b19168555604051600181527fc7f505b2f371ae2175ee4913f4499e1f2633a7b5936321eed1cdaeb6115181d29060200160405180910390a15b5050505050505050565b6108706115e2565b600580549082905560408051828152602081018490527fd67ed534faf3e0dcda08ac6043ec96dcf9b6ebec56055fd14bd0cb40a27c0e49910160405180910390a15050565b6108bd611666565b6108c561169e565b600081116109155760405162461bcd60e51b815260206004820152601a60248201527f43616e6e6f7420756e7374616b65207a65726f20746f6b656e7300000000000060448201526064016105ee565b336000908152600260205260409020548111156109745760405162461bcd60e51b815260206004820152601b60248201527f496e73756666696369656e74207374616b65642062616c616e6365000000000060448201526064016105ee565b3360009081526002602052604081208054839290610993908490611d3a565b9250508190555080600460008282546109ac9190611d3a565b90915550503360009081526002602052604081205490036109d857336000908152600360205260408120555b6000546109ef906001600160a01b031633836116cf565b6040805182815242602082015233917f7fc4727e062e336010f2c282598ef5f14facb3de68cf8195c2f23e1454b2b74e910160405180910390a2610a406001600080516020611e4583398151915255565b50565b60008111610a845760405162461bcd60e51b815260206004820152600e60248201526d125b9d985b1a5908185b5bdd5b9d60921b60448201526064016105ee565b600054610a9c906001600160a01b0316333084611747565b60405181815233907f0939f6f4877faf071412e527bc4c6d0bd65ad077e52b57334f7765265647a7f19060200160405180910390a250565b610adc6115e2565b6001600160a01b038216610b2a5760405162461bcd60e51b8152602060048201526015602482015274496e76616c696420746f6b656e206164647265737360581b60448201526064016105ee565b6000546001600160a01b0390811690831603610b935760405162461bcd60e51b815260206004820152602260248201527f43616e6e6f74207265636f766572207374616b656420535445414b20746f6b656044820152616e7360f01b60648201526084016105ee565b610baf610b9e611429565b6001600160a01b03841690836116cf565b5050565b610bbb6115e2565b610bc3611780565b565b6001600160a01b0381166000908152600260205260408120548190819081908190610bef87611573565b6001600160a01b03979097166000908152600b6020908152604080832054600c835281842054600390935292205492999197509550909350915050565b600080546040516370a0823160e01b81523060048201526001600160a01b03909116906370a0823190602401602060405180830381865afa158015610c75573d6000803e3d6000fd5b505050506040513d601f19601f82011682018060405250810190610c999190611d4d565b905090565b610ca66115e2565b6001600160a01b0382166000818152600a6020908152604091829020805460ff191685151590811790915591519182527f4baf71ac1b8b1858d7ab3d2f65eceedce776ac368d0e05e8f9e9f0bf7ea64e4f91015b60405180910390a25050565b610d0e6115e2565b610bc360006117e0565b336000908152600a602052604090205460ff1680610d4057506001546001600160a01b031633145b80610d635750610d4e611429565b6001600160a01b0316336001600160a01b0316145b610da05760405162461bcd60e51b815260206004820152600e60248201526d139bdd08185d5d1a1bdc9a5e995960921b60448201526064016105ee565b610da861169e565b828114610def5760405162461bcd60e51b8152602060048201526015602482015274082e4e4c2f240d8cadccee8d040dad2e6dac2e8c6d605b1b60448201526064016105ee565b82610e2b5760405162461bcd60e51b815260206004820152600c60248201526b456d7074792061727261797360a01b60448201526064016105ee565b6032831115610e6e5760405162461bcd60e51b815260206004820152600f60248201526e426174636820746f6f206c6172676560881b60448201526064016105ee565b6000805b84811015610f79576000868683818110610e8e57610e8e611d66565b9050602002016020810190610ea39190611b20565b6001600160a01b031603610ee85760405162461bcd60e51b815260206004820152600c60248201526b24b73b30b634b2103ab9b2b960a11b60448201526064016105ee565b6000848483818110610efc57610efc611d66565b9050602002013511610f415760405162461bcd60e51b815260206004820152600e60248201526d125b9d985b1a5908185b5bdd5b9d60921b60448201526064016105ee565b838382818110610f5357610f53611d66565b9050602002013582610f659190611d7c565b915080610f7181611d8f565b915050610e72565b50600080546040516370a0823160e01b81523060048201526001600160a01b03909116906370a0823190602401602060405180830381865afa158015610fc3573d6000803e3d6000fd5b505050506040513d601f19601f82011682018060405250810190610fe79190611d4d565b905060006004548211610ffb576000611008565b6004546110089083611d3a565b90508281101561106a5760405162461bcd60e51b815260206004820152602760248201527f496e73756666696369656e742066756e647320666f7220626174636820616c6c60448201526637b1b0ba34b7b760c91b60648201526084016105ee565b60005b8681101561085e57600088888381811061108957611089611d66565b905060200201602081019061109e9190611b20565b905060008787848181106110b4576110b4611d66565b9050602002013590508060066000846001600160a01b03166001600160a01b0316815260200190815260200160002060008282546110f29190611d7c565b92505081905550806008600082825461110b9190611d7c565b90915550506001600160a01b0382166000908152600b602052604081208054839290611138908490611d7c565b90915550506040518181526001600160a01b038316907fe72be1136aa6680624876f18a06acdffb567b2b5430d3b69d0ee59404e45f6419060200160405180910390a25050808061118890611d8f565b91505061106d565b611198611666565b6111a061169e565b60006111ab33611573565b9050600081116111f05760405162461bcd60e51b815260206004820152601060248201526f4e6f207469707320746f20636c61696d60801b60448201526064016105ee565b600080546040516370a0823160e01b81523060048201526001600160a01b03909116906370a0823190602401602060405180830381865afa158015611239573d6000803e3d6000fd5b505050506040513d601f19601f8201168201806040525081019061125d9190611d4d565b90506000600454821161127157600061127e565b60045461127e9083611d3a565b9050828110156112e15760405162461bcd60e51b815260206004820152602860248201527f496e73756666696369656e7420636f6e74726163742062616c616e636520666f6044820152677220636c61696d7360c01b60648201526084016105ee565b3360009081526007602052604081208054859290611300908490611d7c565b9250508190555082600960008282546113199190611d7c565b909155506000905084600181111561133357611333611da8565b036113545760005461134f906001600160a01b031633856116cf565b6113bc565b600184600181111561136857611368611da8565b036113bc57600061137a600285611dbe565b905060006113888286611d3a565b6000549091506113a2906001600160a01b031633846116cf565b6000546113b9906001600160a01b031633836116cf565b50505b336001600160a01b03167fb7d89831e75d029c439d60a1830efcb30397595a9bd7d4fa89aa954df483c64684866040516113f7929190611e02565b60405180910390a2505050610a406001600080516020611e4583398151915255565b6114216115e2565b610bc3611851565b7f9016d09d72d40fdae2fd8ceac6b6234c7706214fd39c1cd1e609a0528c199300546001600160a01b031690565b61145f611666565b61146761169e565b611471338261189a565b610a406001600080516020611e4583398151915255565b604051637644dd5b60e01b81523090637644dd5b906114ac90600090600401611e16565b600060405180830381600087803b1580156114c657600080fd5b505af11580156114da573d6000803e3d6000fd5b50505050565b60048054600854600954600080546040516370a0823160e01b815230968101969096529094859485948594919390926001600160a01b03909116906370a0823190602401602060405180830381865afa158015611541573d6000803e3d6000fd5b505050506040513d601f19601f820116820180604052508101906115659190611d4d565b935093509350935090919293565b6001600160a01b03811660009081526007602090815260408083205460069092528220546115a19190611d3a565b92915050565b6115af6115e2565b6001600160a01b0381166115d957604051631e4fbdf760e01b8152600060048201526024016105ee565b610a40816117e0565b336115eb611429565b6001600160a01b031614610bc35760405163118cdaa760e01b81523360048201526024016105ee565b6000807ff0c57e16840df040f15088dc2f81fe391c3923bec73e23a9662efc9c229c6a006115a1565b611645611a14565b610a4081611a39565b611656611a14565b610bc3611a41565b610bc3611a14565b600080516020611e4583398151915280546001190161169857604051633ee5aeb560e01b815260040160405180910390fd5b60029055565b600080516020611e258339815191525460ff1615610bc35760405163d93c066560e01b815260040160405180910390fd5b6040516001600160a01b0383811660248301526044820183905261172e91859182169063a9059cbb906064015b604051602081830303815290604052915060e01b6020820180516001600160e01b038381831617835250505050611a49565b505050565b6001600080516020611e4583398151915255565b6040516001600160a01b0384811660248301528381166044830152606482018390526114da9186918216906323b872dd906084016116fc565b611788611aba565b600080516020611e25833981519152805460ff191681557f5db9ee0a495bf2e6ff9c91a7834c1ba4fdd244a5e8aa4e537bd38aeae4b073aa335b6040516001600160a01b03909116815260200160405180910390a150565b7f9016d09d72d40fdae2fd8ceac6b6234c7706214fd39c1cd1e609a0528c19930080546001600160a01b031981166001600160a01b03848116918217845560405192169182907f8be0079c531659141344cd1fd0a4f28419497f9722a3daafe3b4186f6b6457e090600090a3505050565b61185961169e565b600080516020611e25833981519152805460ff191660011781557f62e78cea01bee320cd4e420270b5ea74000d11b0c9f74754ebdbfc544b05a258336117c2565b6005548110156118ec5760405162461bcd60e51b815260206004820152601a60248201527f416d6f756e742062656c6f77206d696e696d756d207374616b6500000000000060448201526064016105ee565b6000811161193c5760405162461bcd60e51b815260206004820152601860248201527f43616e6e6f74207374616b65207a65726f20746f6b656e73000000000000000060448201526064016105ee565b600054611954906001600160a01b0316833084611747565b6001600160a01b0382166000908152600260205260408120805483929061197c908490611d7c565b90915550506001600160a01b0382166000908152600360209081526040808320429055600c909152812080548392906119b6908490611d7c565b9250508190555080600460008282546119cf9190611d7c565b9091555050604080518281524260208201526001600160a01b038416917f1449c6dd7851abc30abf37f57715f492010519147cc2652fbc38202c18a6ee909101610cfa565b611a1c611aea565b610bc357604051631afcd79f60e31b815260040160405180910390fd5b6115af611a14565b611733611a14565b600080602060008451602086016000885af180611a6c576040513d6000823e3d81fd5b50506000513d91508115611a84578060011415611a91565b6001600160a01b0384163b155b156114da57604051635274afe760e01b81526001600160a01b03851660048201526024016105ee565b600080516020611e258339815191525460ff16610bc357604051638dfc202b60e01b815260040160405180910390fd5b6000611af4611614565b54600160401b900460ff16919050565b80356001600160a01b0381168114611b1b57600080fd5b919050565b600060208284031215611b3257600080fd5b611b3b82611b04565b9392505050565b600080600060608486031215611b5757600080fd5b611b6084611b04565b9250611b6e60208501611b04565b9150604084013590509250925092565b600060208284031215611b9057600080fd5b5035919050565b60008060408385031215611baa57600080fd5b611bb383611b04565b946020939093013593505050565b600060208083528351808285015260005b81811015611bee57858101830151858201604001528201611bd2565b506000604082860101526040601f19601f8301168501019250505092915050565b60008060408385031215611c2257600080fd5b611c2b83611b04565b915060208301358015158114611c4057600080fd5b809150509250929050565b60008083601f840112611c5d57600080fd5b50813567ffffffffffffffff811115611c7557600080fd5b6020830191508360208260051b8501011115611c9057600080fd5b9250929050565b60008060008060408587031215611cad57600080fd5b843567ffffffffffffffff80821115611cc557600080fd5b611cd188838901611c4b565b90965094506020870135915080821115611cea57600080fd5b50611cf787828801611c4b565b95989497509550505050565b600060208284031215611d1557600080fd5b813560028110611b3b57600080fd5b634e487b7160e01b600052601160045260246000fd5b818103818111156115a1576115a1611d24565b600060208284031215611d5f57600080fd5b5051919050565b634e487b7160e01b600052603260045260246000fd5b808201808211156115a1576115a1611d24565b600060018201611da157611da1611d24565b5060010190565b634e487b7160e01b600052602160045260246000fd5b600082611ddb57634e487b7160e01b600052601260045260246000fd5b500490565b60028110611dfe57634e487b7160e01b600052602160045260246000fd5b9052565b82815260408101611b3b6020830184611de0565b602081016115a18284611de056fecd5ed15c6e187e77e9aee88184c21f4f2182ab5827cb3b7e07fbedcd63f033009b779b17422d0df92223018b32b4d1fa46e071723d6817e2486d003becc55f00a264697066735822122093e010233b8ccd6d984eeb68e46ddff06c8159936d5d87a67965b26fdb876e0764736f6c63430008140033",
  "linkReferences": {},
  "deployedLinkReferences": {}
}